{
  "address": "0xe7f1725E7734CE288F8367e1Bb143E90bb3F0512",
  "abi": [
    {
      "inputs": [
        {
          "internalType": "address",
          "name": "priceFeedAddress",
          "type": "address"
        }
      ],
      "stateMutability": "nonpayable",
      "type": "constructor"
    },
    {
      "inputs": [],
      "name": "FundMeWithLibrary__NotOwner",
      "type": "error"
    },
    {
      "stateMutability": "payable",
      "type": "fallback"
    },
    {
      "inputs": [],
      "name": "MINIMUM_USD",
      "outputs": [
        {
          "internalType": "uint256",
          "name": "",
          "type": "uint256"
        }
      ],
      "stateMutability": "view",
      "type": "function"
    },
    {
      "inputs": [
        {
          "internalType": "address",
          "name": "",
          "type": "address"
        }
      ],
      "name": "addressToAmountFunded",
      "outputs": [
        {
          "internalType": "uint256",
          "name": "",
          "type": "uint256"
        }
      ],
      "stateMutability": "view",
      "type": "function"
    },
    {
      "inputs": [],
      "name": "fundUSD",
      "outputs": [],
      "stateMutability": "payable",
      "type": "function"
    },
    {
      "inputs": [
        {
          "internalType": "uint256",
          "name": "",
          "type": "uint256"
        }
      ],
      "name": "funders",
      "outputs": [
        {
          "internalType": "address",
          "name": "",
          "type": "address"
        }
      ],
      "stateMutability": "view",
      "type": "function"
    },
    {
      "inputs": [],
      "name": "i_Owner",
      "outputs": [
        {
          "internalType": "address",
          "name": "",
          "type": "address"
        }
      ],
      "stateMutability": "view",
      "type": "function"
    },
    {
      "inputs": [],
      "name": "priceFeed",
      "outputs": [
        {
          "internalType": "contract AggregatorV3Interface",
          "name": "",
          "type": "address"
        }
      ],
      "stateMutability": "view",
      "type": "function"
    },
    {
      "inputs": [],
      "name": "withdraw",
      "outputs": [],
      "stateMutability": "nonpayable",
      "type": "function"
    },
    {
      "stateMutability": "payable",
      "type": "receive"
    }
  ],
  "transactionHash": "0x8f994c67e70880e4a9f455a4cddebb20c480a0423cb5320603806f7fcfe7d9e5",
  "args": [
    "0x5FbDB2315678afecb367f032d93F642f64180aa3"
  ],
  "numDeployments": 1,
  "solcInputHash": "a6fb6143d35bdcbdf80f6a9d29b07754",
  "bytecode": "0x60a060405234801561001057600080fd5b5060405162000fcf38038062000fcf833981810160405281019061003491906100c7565b3373ffffffffffffffffffffffffffffffffffffffff1660808173ffffffffffffffffffffffffffffffffffffffff1660601b8152505080600260006101000a81548173ffffffffffffffffffffffffffffffffffffffff021916908373ffffffffffffffffffffffffffffffffffffffff16021790555050610142565b6000815190506100c18161012b565b92915050565b6000602082840312156100dd576100dc610126565b5b60006100eb848285016100b2565b91505092915050565b60006100ff82610106565b9050919050565b600073ffffffffffffffffffffffffffffffffffffffff82169050919050565b600080fd5b610134816100f4565b811461013f57600080fd5b50565b60805160601c610e6762000168600039600081816102e601526105b10152610e676000f3fe6080604052600436106100745760003560e01c80636b69a5921161004e5780636b69a592146100eb578063741bef1a14610116578063dc0d3dff14610141578063e667b0bf1461017e57610083565b80632489cf531461008d5780633ccfd60b146100975780633e47d6f3146100ae57610083565b36610083576100816101a9565b005b61008b6101a9565b005b6100956101a9565b005b3480156100a357600080fd5b506100ac6102e4565b005b3480156100ba57600080fd5b506100d560048036038101906100d091906107bf565b610525565b6040516100e291906109b5565b60405180910390f35b3480156100f757600080fd5b5061010061053d565b60405161010d91906109b5565b60405180910390f35b34801561012257600080fd5b5061012b61054a565b604051610138919061095a565b60405180910390f35b34801561014d57600080fd5b50610168600480360381019061016391906107ec565b610570565b604051610175919061093f565b60405180910390f35b34801561018a57600080fd5b506101936105af565b6040516101a0919061093f565b60405180910390f35b6802b5e3af16b18800006101e8600260009054906101000a900473ffffffffffffffffffffffffffffffffffffffff16346105d390919063ffffffff16565b1015610229576040517f08c379a000000000000000000000000000000000000000000000000000000000815260040161022090610995565b60405180910390fd5b6000339080600181540180825580915050600190039060005260206000200160009091909190916101000a81548173ffffffffffffffffffffffffffffffffffffffff021916908373ffffffffffffffffffffffffffffffffffffffff16021790555034600160003373ffffffffffffffffffffffffffffffffffffffff1673ffffffffffffffffffffffffffffffffffffffff16815260200190815260200160002060008282546102db91906109ec565b92505081905550565b7f000000000000000000000000000000000000000000000000000000000000000073ffffffffffffffffffffffffffffffffffffffff163373ffffffffffffffffffffffffffffffffffffffff1614610369576040517fc4ae201400000000000000000000000000000000000000000000000000000000815260040160405180910390fd5b60005b60008054905081101561041557600080828154811061038e5761038d610d1d565b5b9060005260206000200160009054906101000a900473ffffffffffffffffffffffffffffffffffffffff1690506000600160008373ffffffffffffffffffffffffffffffffffffffff1673ffffffffffffffffffffffffffffffffffffffff1681526020019081526020016000208190555050808061040c90610c76565b9150905061036c565b50600067ffffffffffffffff81111561043157610430610d4c565b5b60405190808252806020026020018201604052801561045f5781602001602082028036833780820191505090505b50600090805190602001906104759291906106af565b5060003373ffffffffffffffffffffffffffffffffffffffff164760405161049c9061092a565b60006040518083038185875af1925050503d80600081146104d9576040519150601f19603f3d011682016040523d82523d6000602084013e6104de565b606091505b5050905080610522576040517f08c379a000000000000000000000000000000000000000000000000000000000815260040161051990610975565b60405180910390fd5b50565b60016020528060005260406000206000915090505481565b6802b5e3af16b188000081565b600260009054906101000a900473ffffffffffffffffffffffffffffffffffffffff1681565b6000818154811061058057600080fd5b906000526020600020016000915054906101000a900473ffffffffffffffffffffffffffffffffffffffff1681565b7f000000000000000000000000000000000000000000000000000000000000000081565b6000806105df8361060f565b90506000670de0b6b3a764000085836105f89190610b8a565b6106029190610a42565b9050809250505092915050565b6000808273ffffffffffffffffffffffffffffffffffffffff1663feaf968c6040518163ffffffff1660e01b815260040160a06040518083038186803b15801561065857600080fd5b505afa15801561066c573d6000803e3d6000fd5b505050506040513d601f19601f820116820180604052508101906106909190610819565b5050509150506402540be400816106a79190610a73565b915050919050565b828054828255906000526020600020908101928215610728579160200282015b828111156107275782518260006101000a81548173ffffffffffffffffffffffffffffffffffffffff021916908373ffffffffffffffffffffffffffffffffffffffff160217905550916020019190600101906106cf565b5b5090506107359190610739565b5090565b5b8082111561075257600081600090555060010161073a565b5090565b60008135905061076581610dd5565b92915050565b60008151905061077a81610dec565b92915050565b60008135905061078f81610e03565b92915050565b6000815190506107a481610e03565b92915050565b6000815190506107b981610e1a565b92915050565b6000602082840312156107d5576107d4610d7b565b5b60006107e384828501610756565b91505092915050565b60006020828403121561080257610801610d7b565b5b600061081084828501610780565b91505092915050565b600080600080600060a0868803121561083557610834610d7b565b5b6000610843888289016107aa565b95505060206108548882890161076b565b945050604061086588828901610795565b935050606061087688828901610795565b9250506080610887888289016107aa565b9150509295509295909350565b61089d81610be4565b82525050565b6108ac81610c40565b82525050565b60006108bf600b836109db565b91506108ca82610d80565b602082019050919050565b60006108e26000836109d0565b91506108ed82610da9565b600082019050919050565b60006109056012836109db565b915061091082610dac565b602082019050919050565b61092481610c20565b82525050565b6000610935826108d5565b9150819050919050565b60006020820190506109546000830184610894565b92915050565b600060208201905061096f60008301846108a3565b92915050565b6000602082019050818103600083015261098e816108b2565b9050919050565b600060208201905081810360008301526109ae816108f8565b9050919050565b60006020820190506109ca600083018461091b565b92915050565b600081905092915050565b600082825260208201905092915050565b60006109f782610c20565b9150610a0283610c20565b9250827fffffffffffffffffffffffffffffffffffffffffffffffffffffffffffffffff03821115610a3757610a36610cbf565b5b828201905092915050565b6000610a4d82610c20565b9150610a5883610c20565b925082610a6857610a67610cee565b5b828204905092915050565b6000610a7e82610bf6565b9150610a8983610bf6565b9250827f7fffffffffffffffffffffffffffffffffffffffffffffffffffffffffffffff0482116000841360008413161615610ac857610ac7610cbf565b5b817f80000000000000000000000000000000000000000000000000000000000000000583126000841260008413161615610b0557610b04610cbf565b5b827f80000000000000000000000000000000000000000000000000000000000000000582126000841360008412161615610b4257610b41610cbf565b5b827f7fffffffffffffffffffffffffffffffffffffffffffffffffffffffffffffff0582126000841260008412161615610b7f57610b7e610cbf565b5b828202905092915050565b6000610b9582610c20565b9150610ba083610c20565b9250817fffffffffffffffffffffffffffffffffffffffffffffffffffffffffffffffff0483118215151615610bd957610bd8610cbf565b5b828202905092915050565b6000610bef82610c00565b9050919050565b6000819050919050565b600073ffffffffffffffffffffffffffffffffffffffff82169050919050565b6000819050919050565b600069ffffffffffffffffffff82169050919050565b6000610c4b82610c52565b9050919050565b6000610c5d82610c64565b9050919050565b6000610c6f82610c00565b9050919050565b6000610c8182610c20565b91507fffffffffffffffffffffffffffffffffffffffffffffffffffffffffffffffff821415610cb457610cb3610cbf565b5b600182019050919050565b7f4e487b7100000000000000000000000000000000000000000000000000000000600052601160045260246000fd5b7f4e487b7100000000000000000000000000000000000000000000000000000000600052601260045260246000fd5b7f4e487b7100000000000000000000000000000000000000000000000000000000600052603260045260246000fd5b7f4e487b7100000000000000000000000000000000000000000000000000000000600052604160045260246000fd5b600080fd5b7f43616c6c206661696c6564000000000000000000000000000000000000000000600082015250565b50565b7f4d696e696d756d20697320353020555344210000000000000000000000000000600082015250565b610dde81610be4565b8114610de957600080fd5b50565b610df581610bf6565b8114610e0057600080fd5b50565b610e0c81610c20565b8114610e1757600080fd5b50565b610e2381610c2a565b8114610e2e57600080fd5b5056fea26469706673582212202e076fce08bfe77e680055472c497e63a6927c27e137c0004ced5d6acf6afd6764736f6c63430008070033",
  "devdoc": {
    "author": "Jatin Kalra",
    "details": "This contract uses price feeds as library",
    "kind": "dev",
    "methods": {
      "fundUSD()": {
        "details": "This implements price feeds as our library"
      },
      "withdraw()": {
        "details": "Array and mapping are emptied and call function is used to withdraw"
      }
    },
    "title": "A contract for crowd funding",
    "version": 1
  },
  "userdoc": {
    "kind": "user",
    "methods": {
      "fundUSD()": {
        "notice": "fundUSD() function funds this contract"
      },
      "withdraw()": {
        "notice": "This withdraws the funds from the contract"
      }
    },
    "notice": "This is a demo funding contract",
    "version": 1
  },
  "storageLayout": {
    "storage": [
      {
        "astId": 320,
        "contract": "contracts/FundMeWithLibrary.sol:FundMeWithLibrary",
        "label": "funders",
        "offset": 0,
        "slot": "0",
        "type": "t_array(t_address)dyn_storage"
      },
      {
        "astId": 324,
        "contract": "contracts/FundMeWithLibrary.sol:FundMeWithLibrary",
        "label": "addressToAmountFunded",
        "offset": 0,
        "slot": "1",
        "type": "t_mapping(t_address,t_uint256)"
      },
      {
        "astId": 334,
        "contract": "contracts/FundMeWithLibrary.sol:FundMeWithLibrary",
        "label": "priceFeed",
        "offset": 0,
        "slot": "2",
        "type": "t_contract(AggregatorV3Interface)102"
      }
    ],
    "types": {
      "t_address": {
        "encoding": "inplace",
        "label": "address",
        "numberOfBytes": "20"
      },
      "t_array(t_address)dyn_storage": {
        "base": "t_address",
        "encoding": "dynamic_array",
        "label": "address[]",
        "numberOfBytes": "32"
      },
      "t_contract(AggregatorV3Interface)102": {
        "encoding": "inplace",
        "label": "contract AggregatorV3Interface",
        "numberOfBytes": "20"
      },
      "t_mapping(t_address,t_uint256)": {
        "encoding": "mapping",
        "key": "t_address",
        "label": "mapping(address => uint256)",
        "numberOfBytes": "32",
        "value": "t_uint256"
      },
      "t_uint256": {
        "encoding": "inplace",
        "label": "uint256",
        "numberOfBytes": "32"
      }
    }
  }
}